{
  "contracts/fileUploader.sol": {
    "FileUploader": {
      "abi": [
        {
          "inputs": [
            {
              "internalType": "address",
              "name": "_user",
              "type": "address"
            }
          ],
          "name": "getFiles",
          "outputs": [
            {
              "components": [
                {
                  "internalType": "string",
                  "name": "cid",
                  "type": "string"
                },
                {
                  "internalType": "string",
                  "name": "fileName",
                  "type": "string"
                },
                {
                  "internalType": "uint256",
                  "name": "timestamp",
                  "type": "uint256"
                }
              ],
              "internalType": "struct FileUploader.File[]",
              "name": "",
              "type": "tuple[]"
            }
          ],
          "stateMutability": "view",
          "type": "function"
        },
        {
          "inputs": [
            {
              "internalType": "string",
              "name": "_cid",
              "type": "string"
            },
            {
              "internalType": "string",
              "name": "_filename",
              "type": "string"
            }
          ],
          "name": "uploadFile",
          "outputs": [],
          "stateMutability": "nonpayable",
          "type": "function"
        },
        {
          "inputs": [
            {
              "internalType": "address",
              "name": "",
              "type": "address"
            },
            {
              "internalType": "uint256",
              "name": "",
              "type": "uint256"
            }
          ],
          "name": "userFile",
          "outputs": [
            {
              "internalType": "string",
              "name": "cid",
              "type": "string"
            },
            {
              "internalType": "string",
              "name": "fileName",
              "type": "string"
            },
            {
              "internalType": "uint256",
              "name": "timestamp",
              "type": "uint256"
            }
          ],
          "stateMutability": "view",
          "type": "function"
        }
      ],
      "evm": {
        "bytecode": {
          "linkReferences": {},
          "object": "6080604052348015600f57600080fd5b50610cf28061001f6000396000f3fe608060405234801561001057600080fd5b50600436106100415760003560e01c80631a0596b314610046578063433bf37b14610078578063996d50bf146100a8575b600080fd5b610060600480360381019061005b919061054c565b6100c4565b60405161006f9392919061062b565b60405180910390f35b610092600480360381019061008d9190610670565b61021b565b60405161009f919061080f565b60405180910390f35b6100c260048036038101906100bd9190610966565b6103e6565b005b600060205281600052604060002081815481106100e057600080fd5b90600052602060002090600302016000915091505080600001805461010490610a0d565b80601f016020809104026020016040519081016040528092919081815260200182805461013090610a0d565b801561017d5780601f106101525761010080835404028352916020019161017d565b820191906000526020600020905b81548152906001019060200180831161016057829003601f168201915b50505050509080600101805461019290610a0d565b80601f01602080910402602001604051908101604052809291908181526020018280546101be90610a0d565b801561020b5780601f106101e05761010080835404028352916020019161020b565b820191906000526020600020905b8154815290600101906020018083116101ee57829003601f168201915b5050505050908060020154905083565b60606000808373ffffffffffffffffffffffffffffffffffffffff1673ffffffffffffffffffffffffffffffffffffffff168152602001908152602001600020805480602002602001604051908101604052809291908181526020016000905b828210156103db57838290600052602060002090600302016040518060600160405290816000820180546102ae90610a0d565b80601f01602080910402602001604051908101604052809291908181526020018280546102da90610a0d565b80156103275780601f106102fc57610100808354040283529160200191610327565b820191906000526020600020905b81548152906001019060200180831161030a57829003601f168201915b5050505050815260200160018201805461034090610a0d565b80601f016020809104026020016040519081016040528092919081815260200182805461036c90610a0d565b80156103b95780601f1061038e576101008083540402835291602001916103b9565b820191906000526020600020905b81548152906001019060200180831161039c57829003601f168201915b505050505081526020016002820154815250508152602001906001019061027b565b505050509050919050565b6000803373ffffffffffffffffffffffffffffffffffffffff1673ffffffffffffffffffffffffffffffffffffffff1681526020019081526020016000206040518060600160405280848152602001838152602001428152509080600181540180825580915050600190039060005260206000209060030201600090919091909150600082015181600001908161047d9190610bea565b5060208201518160010190816104939190610bea565b506040820151816002015550505050565b6000604051905090565b600080fd5b600080fd5b600073ffffffffffffffffffffffffffffffffffffffff82169050919050565b60006104e3826104b8565b9050919050565b6104f3816104d8565b81146104fe57600080fd5b50565b600081359050610510816104ea565b92915050565b6000819050919050565b61052981610516565b811461053457600080fd5b50565b60008135905061054681610520565b92915050565b60008060408385031215610563576105626104ae565b5b600061057185828601610501565b925050602061058285828601610537565b9150509250929050565b600081519050919050565b600082825260208201905092915050565b60005b838110156105c65780820151818401526020810190506105ab565b60008484015250505050565b6000601f19601f8301169050919050565b60006105ee8261058c565b6105f88185610597565b93506106088185602086016105a8565b610611816105d2565b840191505092915050565b61062581610516565b82525050565b6000606082019050818103600083015261064581866105e3565b9050818103602083015261065981856105e3565b9050610668604083018461061c565b949350505050565b600060208284031215610686576106856104ae565b5b600061069484828501610501565b91505092915050565b600081519050919050565b600082825260208201905092915050565b6000819050602082019050919050565b600082825260208201905092915050565b60006106e58261058c565b6106ef81856106c9565b93506106ff8185602086016105a8565b610708816105d2565b840191505092915050565b61071c81610516565b82525050565b6000606083016000830151848203600086015261073f82826106da565b9150506020830151848203602086015261075982826106da565b915050604083015161076e6040860182610713565b508091505092915050565b60006107858383610722565b905092915050565b6000602082019050919050565b60006107a58261069d565b6107af81856106a8565b9350836020820285016107c1856106b9565b8060005b858110156107fd57848403895281516107de8582610779565b94506107e98361078d565b925060208a019950506001810190506107c5565b50829750879550505050505092915050565b60006020820190508181036000830152610829818461079a565b905092915050565b600080fd5b600080fd5b7f4e487b7100000000000000000000000000000000000000000000000000000000600052604160045260246000fd5b610873826105d2565b810181811067ffffffffffffffff821117156108925761089161083b565b5b80604052505050565b60006108a56104a4565b90506108b1828261086a565b919050565b600067ffffffffffffffff8211156108d1576108d061083b565b5b6108da826105d2565b9050602081019050919050565b82818337600083830152505050565b6000610909610904846108b6565b61089b565b90508281526020810184848401111561092557610924610836565b5b6109308482856108e7565b509392505050565b600082601f83011261094d5761094c610831565b5b813561095d8482602086016108f6565b91505092915050565b6000806040838503121561097d5761097c6104ae565b5b600083013567ffffffffffffffff81111561099b5761099a6104b3565b5b6109a785828601610938565b925050602083013567ffffffffffffffff8111156109c8576109c76104b3565b5b6109d485828601610938565b9150509250929050565b7f4e487b7100000000000000000000000000000000000000000000000000000000600052602260045260246000fd5b60006002820490506001821680610a2557607f821691505b602082108103610a3857610a376109de565b5b50919050565b60008190508160005260206000209050919050565b60006020601f8301049050919050565b600082821b905092915050565b600060088302610aa07fffffffffffffffffffffffffffffffffffffffffffffffffffffffffffffffff82610a63565b610aaa8683610a63565b95508019841693508086168417925050509392505050565b6000819050919050565b6000610ae7610ae2610add84610516565b610ac2565b610516565b9050919050565b6000819050919050565b610b0183610acc565b610b15610b0d82610aee565b848454610a70565b825550505050565b600090565b610b2a610b1d565b610b35818484610af8565b505050565b5b81811015610b5957610b4e600082610b22565b600181019050610b3b565b5050565b601f821115610b9e57610b6f81610a3e565b610b7884610a53565b81016020851015610b87578190505b610b9b610b9385610a53565b830182610b3a565b50505b505050565b600082821c905092915050565b6000610bc160001984600802610ba3565b1980831691505092915050565b6000610bda8383610bb0565b9150826002028217905092915050565b610bf38261058c565b67ffffffffffffffff811115610c0c57610c0b61083b565b5b610c168254610a0d565b610c21828285610b5d565b600060209050601f831160018114610c545760008415610c42578287015190505b610c4c8582610bce565b865550610cb4565b601f198416610c6286610a3e565b60005b82811015610c8a57848901518255600182019150602085019450602081019050610c65565b86831015610ca75784890151610ca3601f891682610bb0565b8355505b6001600288020188555050505b50505050505056fea26469706673582212209bc4ce3a722481ebc149c67f3d232100aacabf967addb9a36728b45742e68df864736f6c634300081c0033",
          "opcodes": "PUSH1 0x80 PUSH1 0x40 MSTORE CALLVALUE DUP1 ISZERO PUSH1 0xF JUMPI PUSH1 0x0 DUP1 REVERT JUMPDEST POP PUSH2 0xCF2 DUP1 PUSH2 0x1F PUSH1 0x0 CODECOPY PUSH1 0x0 RETURN INVALID PUSH1 0x80 PUSH1 0x40 MSTORE CALLVALUE DUP1 ISZERO PUSH2 0x10 JUMPI PUSH1 0x0 DUP1 REVERT JUMPDEST POP PUSH1 0x4 CALLDATASIZE LT PUSH2 0x41 JUMPI PUSH1 0x0 CALLDATALOAD PUSH1 0xE0 SHR DUP1 PUSH4 0x1A0596B3 EQ PUSH2 0x46 JUMPI DUP1 PUSH4 0x433BF37B EQ PUSH2 0x78 JUMPI DUP1 PUSH4 0x996D50BF EQ PUSH2 0xA8 JUMPI JUMPDEST PUSH1 0x0 DUP1 REVERT JUMPDEST PUSH2 0x60 PUSH1 0x4 DUP1 CALLDATASIZE SUB DUP2 ADD SWAP1 PUSH2 0x5B SWAP2 SWAP1 PUSH2 0x54C JUMP JUMPDEST PUSH2 0xC4 JUMP JUMPDEST PUSH1 0x40 MLOAD PUSH2 0x6F SWAP4 SWAP3 SWAP2 SWAP1 PUSH2 0x62B JUMP JUMPDEST PUSH1 0x40 MLOAD DUP1 SWAP2 SUB SWAP1 RETURN JUMPDEST PUSH2 0x92 PUSH1 0x4 DUP1 CALLDATASIZE SUB DUP2 ADD SWAP1 PUSH2 0x8D SWAP2 SWAP1 PUSH2 0x670 JUMP JUMPDEST PUSH2 0x21B JUMP JUMPDEST PUSH1 0x40 MLOAD PUSH2 0x9F SWAP2 SWAP1 PUSH2 0x80F JUMP JUMPDEST PUSH1 0x40 MLOAD DUP1 SWAP2 SUB SWAP1 RETURN JUMPDEST PUSH2 0xC2 PUSH1 0x4 DUP1 CALLDATASIZE SUB DUP2 ADD SWAP1 PUSH2 0xBD SWAP2 SWAP1 PUSH2 0x966 JUMP JUMPDEST PUSH2 0x3E6 JUMP JUMPDEST STOP JUMPDEST PUSH1 0x0 PUSH1 0x20 MSTORE DUP2 PUSH1 0x0 MSTORE PUSH1 0x40 PUSH1 0x0 KECCAK256 DUP2 DUP2 SLOAD DUP2 LT PUSH2 0xE0 JUMPI PUSH1 0x0 DUP1 REVERT JUMPDEST SWAP1 PUSH1 0x0 MSTORE PUSH1 0x20 PUSH1 0x0 KECCAK256 SWAP1 PUSH1 0x3 MUL ADD PUSH1 0x0 SWAP2 POP SWAP2 POP POP DUP1 PUSH1 0x0 ADD DUP1 SLOAD PUSH2 0x104 SWAP1 PUSH2 0xA0D JUMP JUMPDEST DUP1 PUSH1 0x1F ADD PUSH1 0x20 DUP1 SWAP2 DIV MUL PUSH1 0x20 ADD PUSH1 0x40 MLOAD SWAP1 DUP2 ADD PUSH1 0x40 MSTORE DUP1 SWAP3 SWAP2 SWAP1 DUP2 DUP2 MSTORE PUSH1 0x20 ADD DUP3 DUP1 SLOAD PUSH2 0x130 SWAP1 PUSH2 0xA0D JUMP JUMPDEST DUP1 ISZERO PUSH2 0x17D JUMPI DUP1 PUSH1 0x1F LT PUSH2 0x152 JUMPI PUSH2 0x100 DUP1 DUP4 SLOAD DIV MUL DUP4 MSTORE SWAP2 PUSH1 0x20 ADD SWAP2 PUSH2 0x17D JUMP JUMPDEST DUP3 ADD SWAP2 SWAP1 PUSH1 0x0 MSTORE PUSH1 0x20 PUSH1 0x0 KECCAK256 SWAP1 JUMPDEST DUP2 SLOAD DUP2 MSTORE SWAP1 PUSH1 0x1 ADD SWAP1 PUSH1 0x20 ADD DUP1 DUP4 GT PUSH2 0x160 JUMPI DUP3 SWAP1 SUB PUSH1 0x1F AND DUP3 ADD SWAP2 JUMPDEST POP POP POP POP POP SWAP1 DUP1 PUSH1 0x1 ADD DUP1 SLOAD PUSH2 0x192 SWAP1 PUSH2 0xA0D JUMP JUMPDEST DUP1 PUSH1 0x1F ADD PUSH1 0x20 DUP1 SWAP2 DIV MUL PUSH1 0x20 ADD PUSH1 0x40 MLOAD SWAP1 DUP2 ADD PUSH1 0x40 MSTORE DUP1 SWAP3 SWAP2 SWAP1 DUP2 DUP2 MSTORE PUSH1 0x20 ADD DUP3 DUP1 SLOAD PUSH2 0x1BE SWAP1 PUSH2 0xA0D JUMP JUMPDEST DUP1 ISZERO PUSH2 0x20B JUMPI DUP1 PUSH1 0x1F LT PUSH2 0x1E0 JUMPI PUSH2 0x100 DUP1 DUP4 SLOAD DIV MUL DUP4 MSTORE SWAP2 PUSH1 0x20 ADD SWAP2 PUSH2 0x20B JUMP JUMPDEST DUP3 ADD SWAP2 SWAP1 PUSH1 0x0 MSTORE PUSH1 0x20 PUSH1 0x0 KECCAK256 SWAP1 JUMPDEST DUP2 SLOAD DUP2 MSTORE SWAP1 PUSH1 0x1 ADD SWAP1 PUSH1 0x20 ADD DUP1 DUP4 GT PUSH2 0x1EE JUMPI DUP3 SWAP1 SUB PUSH1 0x1F AND DUP3 ADD SWAP2 JUMPDEST POP POP POP POP POP SWAP1 DUP1 PUSH1 0x2 ADD SLOAD SWAP1 POP DUP4 JUMP JUMPDEST PUSH1 0x60 PUSH1 0x0 DUP1 DUP4 PUSH20 0xFFFFFFFFFFFFFFFFFFFFFFFFFFFFFFFFFFFFFFFF AND PUSH20 0xFFFFFFFFFFFFFFFFFFFFFFFFFFFFFFFFFFFFFFFF AND DUP2 MSTORE PUSH1 0x20 ADD SWAP1 DUP2 MSTORE PUSH1 0x20 ADD PUSH1 0x0 KECCAK256 DUP1 SLOAD DUP1 PUSH1 0x20 MUL PUSH1 0x20 ADD PUSH1 0x40 MLOAD SWAP1 DUP2 ADD PUSH1 0x40 MSTORE DUP1 SWAP3 SWAP2 SWAP1 DUP2 DUP2 MSTORE PUSH1 0x20 ADD PUSH1 0x0 SWAP1 JUMPDEST DUP3 DUP3 LT ISZERO PUSH2 0x3DB JUMPI DUP4 DUP3 SWAP1 PUSH1 0x0 MSTORE PUSH1 0x20 PUSH1 0x0 KECCAK256 SWAP1 PUSH1 0x3 MUL ADD PUSH1 0x40 MLOAD DUP1 PUSH1 0x60 ADD PUSH1 0x40 MSTORE SWAP1 DUP2 PUSH1 0x0 DUP3 ADD DUP1 SLOAD PUSH2 0x2AE SWAP1 PUSH2 0xA0D JUMP JUMPDEST DUP1 PUSH1 0x1F ADD PUSH1 0x20 DUP1 SWAP2 DIV MUL PUSH1 0x20 ADD PUSH1 0x40 MLOAD SWAP1 DUP2 ADD PUSH1 0x40 MSTORE DUP1 SWAP3 SWAP2 SWAP1 DUP2 DUP2 MSTORE PUSH1 0x20 ADD DUP3 DUP1 SLOAD PUSH2 0x2DA SWAP1 PUSH2 0xA0D JUMP JUMPDEST DUP1 ISZERO PUSH2 0x327 JUMPI DUP1 PUSH1 0x1F LT PUSH2 0x2FC JUMPI PUSH2 0x100 DUP1 DUP4 SLOAD DIV MUL DUP4 MSTORE SWAP2 PUSH1 0x20 ADD SWAP2 PUSH2 0x327 JUMP JUMPDEST DUP3 ADD SWAP2 SWAP1 PUSH1 0x0 MSTORE PUSH1 0x20 PUSH1 0x0 KECCAK256 SWAP1 JUMPDEST DUP2 SLOAD DUP2 MSTORE SWAP1 PUSH1 0x1 ADD SWAP1 PUSH1 0x20 ADD DUP1 DUP4 GT PUSH2 0x30A JUMPI DUP3 SWAP1 SUB PUSH1 0x1F AND DUP3 ADD SWAP2 JUMPDEST POP POP POP POP POP DUP2 MSTORE PUSH1 0x20 ADD PUSH1 0x1 DUP3 ADD DUP1 SLOAD PUSH2 0x340 SWAP1 PUSH2 0xA0D JUMP JUMPDEST DUP1 PUSH1 0x1F ADD PUSH1 0x20 DUP1 SWAP2 DIV MUL PUSH1 0x20 ADD PUSH1 0x40 MLOAD SWAP1 DUP2 ADD PUSH1 0x40 MSTORE DUP1 SWAP3 SWAP2 SWAP1 DUP2 DUP2 MSTORE PUSH1 0x20 ADD DUP3 DUP1 SLOAD PUSH2 0x36C SWAP1 PUSH2 0xA0D JUMP JUMPDEST DUP1 ISZERO PUSH2 0x3B9 JUMPI DUP1 PUSH1 0x1F LT PUSH2 0x38E JUMPI PUSH2 0x100 DUP1 DUP4 SLOAD DIV MUL DUP4 MSTORE SWAP2 PUSH1 0x20 ADD SWAP2 PUSH2 0x3B9 JUMP JUMPDEST DUP3 ADD SWAP2 SWAP1 PUSH1 0x0 MSTORE PUSH1 0x20 PUSH1 0x0 KECCAK256 SWAP1 JUMPDEST DUP2 SLOAD DUP2 MSTORE SWAP1 PUSH1 0x1 ADD SWAP1 PUSH1 0x20 ADD DUP1 DUP4 GT PUSH2 0x39C JUMPI DUP3 SWAP1 SUB PUSH1 0x1F AND DUP3 ADD SWAP2 JUMPDEST POP POP POP POP POP DUP2 MSTORE PUSH1 0x20 ADD PUSH1 0x2 DUP3 ADD SLOAD DUP2 MSTORE POP POP DUP2 MSTORE PUSH1 0x20 ADD SWAP1 PUSH1 0x1 ADD SWAP1 PUSH2 0x27B JUMP JUMPDEST POP POP POP POP SWAP1 POP SWAP2 SWAP1 POP JUMP JUMPDEST PUSH1 0x0 DUP1 CALLER PUSH20 0xFFFFFFFFFFFFFFFFFFFFFFFFFFFFFFFFFFFFFFFF AND PUSH20 0xFFFFFFFFFFFFFFFFFFFFFFFFFFFFFFFFFFFFFFFF AND DUP2 MSTORE PUSH1 0x20 ADD SWAP1 DUP2 MSTORE PUSH1 0x20 ADD PUSH1 0x0 KECCAK256 PUSH1 0x40 MLOAD DUP1 PUSH1 0x60 ADD PUSH1 0x40 MSTORE DUP1 DUP5 DUP2 MSTORE PUSH1 0x20 ADD DUP4 DUP2 MSTORE PUSH1 0x20 ADD TIMESTAMP DUP2 MSTORE POP SWAP1 DUP1 PUSH1 0x1 DUP2 SLOAD ADD DUP1 DUP3 SSTORE DUP1 SWAP2 POP POP PUSH1 0x1 SWAP1 SUB SWAP1 PUSH1 0x0 MSTORE PUSH1 0x20 PUSH1 0x0 KECCAK256 SWAP1 PUSH1 0x3 MUL ADD PUSH1 0x0 SWAP1 SWAP2 SWAP1 SWAP2 SWAP1 SWAP2 POP PUSH1 0x0 DUP3 ADD MLOAD DUP2 PUSH1 0x0 ADD SWAP1 DUP2 PUSH2 0x47D SWAP2 SWAP1 PUSH2 0xBEA JUMP JUMPDEST POP PUSH1 0x20 DUP3 ADD MLOAD DUP2 PUSH1 0x1 ADD SWAP1 DUP2 PUSH2 0x493 SWAP2 SWAP1 PUSH2 0xBEA JUMP JUMPDEST POP PUSH1 0x40 DUP3 ADD MLOAD DUP2 PUSH1 0x2 ADD SSTORE POP POP POP POP JUMP JUMPDEST PUSH1 0x0 PUSH1 0x40 MLOAD SWAP1 POP SWAP1 JUMP JUMPDEST PUSH1 0x0 DUP1 REVERT JUMPDEST PUSH1 0x0 DUP1 REVERT JUMPDEST PUSH1 0x0 PUSH20 0xFFFFFFFFFFFFFFFFFFFFFFFFFFFFFFFFFFFFFFFF DUP3 AND SWAP1 POP SWAP2 SWAP1 POP JUMP JUMPDEST PUSH1 0x0 PUSH2 0x4E3 DUP3 PUSH2 0x4B8 JUMP JUMPDEST SWAP1 POP SWAP2 SWAP1 POP JUMP JUMPDEST PUSH2 0x4F3 DUP2 PUSH2 0x4D8 JUMP JUMPDEST DUP2 EQ PUSH2 0x4FE JUMPI PUSH1 0x0 DUP1 REVERT JUMPDEST POP JUMP JUMPDEST PUSH1 0x0 DUP2 CALLDATALOAD SWAP1 POP PUSH2 0x510 DUP2 PUSH2 0x4EA JUMP JUMPDEST SWAP3 SWAP2 POP POP JUMP JUMPDEST PUSH1 0x0 DUP2 SWAP1 POP SWAP2 SWAP1 POP JUMP JUMPDEST PUSH2 0x529 DUP2 PUSH2 0x516 JUMP JUMPDEST DUP2 EQ PUSH2 0x534 JUMPI PUSH1 0x0 DUP1 REVERT JUMPDEST POP JUMP JUMPDEST PUSH1 0x0 DUP2 CALLDATALOAD SWAP1 POP PUSH2 0x546 DUP2 PUSH2 0x520 JUMP JUMPDEST SWAP3 SWAP2 POP POP JUMP JUMPDEST PUSH1 0x0 DUP1 PUSH1 0x40 DUP4 DUP6 SUB SLT ISZERO PUSH2 0x563 JUMPI PUSH2 0x562 PUSH2 0x4AE JUMP JUMPDEST JUMPDEST PUSH1 0x0 PUSH2 0x571 DUP6 DUP3 DUP7 ADD PUSH2 0x501 JUMP JUMPDEST SWAP3 POP POP PUSH1 0x20 PUSH2 0x582 DUP6 DUP3 DUP7 ADD PUSH2 0x537 JUMP JUMPDEST SWAP2 POP POP SWAP3 POP SWAP3 SWAP1 POP JUMP JUMPDEST PUSH1 0x0 DUP2 MLOAD SWAP1 POP SWAP2 SWAP1 POP JUMP JUMPDEST PUSH1 0x0 DUP3 DUP3 MSTORE PUSH1 0x20 DUP3 ADD SWAP1 POP SWAP3 SWAP2 POP POP JUMP JUMPDEST PUSH1 0x0 JUMPDEST DUP4 DUP2 LT ISZERO PUSH2 0x5C6 JUMPI DUP1 DUP3 ADD MLOAD DUP2 DUP5 ADD MSTORE PUSH1 0x20 DUP2 ADD SWAP1 POP PUSH2 0x5AB JUMP JUMPDEST PUSH1 0x0 DUP5 DUP5 ADD MSTORE POP POP POP POP JUMP JUMPDEST PUSH1 0x0 PUSH1 0x1F NOT PUSH1 0x1F DUP4 ADD AND SWAP1 POP SWAP2 SWAP1 POP JUMP JUMPDEST PUSH1 0x0 PUSH2 0x5EE DUP3 PUSH2 0x58C JUMP JUMPDEST PUSH2 0x5F8 DUP2 DUP6 PUSH2 0x597 JUMP JUMPDEST SWAP4 POP PUSH2 0x608 DUP2 DUP6 PUSH1 0x20 DUP7 ADD PUSH2 0x5A8 JUMP JUMPDEST PUSH2 0x611 DUP2 PUSH2 0x5D2 JUMP JUMPDEST DUP5 ADD SWAP2 POP POP SWAP3 SWAP2 POP POP JUMP JUMPDEST PUSH2 0x625 DUP2 PUSH2 0x516 JUMP JUMPDEST DUP3 MSTORE POP POP JUMP JUMPDEST PUSH1 0x0 PUSH1 0x60 DUP3 ADD SWAP1 POP DUP2 DUP2 SUB PUSH1 0x0 DUP4 ADD MSTORE PUSH2 0x645 DUP2 DUP7 PUSH2 0x5E3 JUMP JUMPDEST SWAP1 POP DUP2 DUP2 SUB PUSH1 0x20 DUP4 ADD MSTORE PUSH2 0x659 DUP2 DUP6 PUSH2 0x5E3 JUMP JUMPDEST SWAP1 POP PUSH2 0x668 PUSH1 0x40 DUP4 ADD DUP5 PUSH2 0x61C JUMP JUMPDEST SWAP5 SWAP4 POP POP POP POP JUMP JUMPDEST PUSH1 0x0 PUSH1 0x20 DUP3 DUP5 SUB SLT ISZERO PUSH2 0x686 JUMPI PUSH2 0x685 PUSH2 0x4AE JUMP JUMPDEST JUMPDEST PUSH1 0x0 PUSH2 0x694 DUP5 DUP3 DUP6 ADD PUSH2 0x501 JUMP JUMPDEST SWAP2 POP POP SWAP3 SWAP2 POP POP JUMP JUMPDEST PUSH1 0x0 DUP2 MLOAD SWAP1 POP SWAP2 SWAP1 POP JUMP JUMPDEST PUSH1 0x0 DUP3 DUP3 MSTORE PUSH1 0x20 DUP3 ADD SWAP1 POP SWAP3 SWAP2 POP POP JUMP JUMPDEST PUSH1 0x0 DUP2 SWAP1 POP PUSH1 0x20 DUP3 ADD SWAP1 POP SWAP2 SWAP1 POP JUMP JUMPDEST PUSH1 0x0 DUP3 DUP3 MSTORE PUSH1 0x20 DUP3 ADD SWAP1 POP SWAP3 SWAP2 POP POP JUMP JUMPDEST PUSH1 0x0 PUSH2 0x6E5 DUP3 PUSH2 0x58C JUMP JUMPDEST PUSH2 0x6EF DUP2 DUP6 PUSH2 0x6C9 JUMP JUMPDEST SWAP4 POP PUSH2 0x6FF DUP2 DUP6 PUSH1 0x20 DUP7 ADD PUSH2 0x5A8 JUMP JUMPDEST PUSH2 0x708 DUP2 PUSH2 0x5D2 JUMP JUMPDEST DUP5 ADD SWAP2 POP POP SWAP3 SWAP2 POP POP JUMP JUMPDEST PUSH2 0x71C DUP2 PUSH2 0x516 JUMP JUMPDEST DUP3 MSTORE POP POP JUMP JUMPDEST PUSH1 0x0 PUSH1 0x60 DUP4 ADD PUSH1 0x0 DUP4 ADD MLOAD DUP5 DUP3 SUB PUSH1 0x0 DUP7 ADD MSTORE PUSH2 0x73F DUP3 DUP3 PUSH2 0x6DA JUMP JUMPDEST SWAP2 POP POP PUSH1 0x20 DUP4 ADD MLOAD DUP5 DUP3 SUB PUSH1 0x20 DUP7 ADD MSTORE PUSH2 0x759 DUP3 DUP3 PUSH2 0x6DA JUMP JUMPDEST SWAP2 POP POP PUSH1 0x40 DUP4 ADD MLOAD PUSH2 0x76E PUSH1 0x40 DUP7 ADD DUP3 PUSH2 0x713 JUMP JUMPDEST POP DUP1 SWAP2 POP POP SWAP3 SWAP2 POP POP JUMP JUMPDEST PUSH1 0x0 PUSH2 0x785 DUP4 DUP4 PUSH2 0x722 JUMP JUMPDEST SWAP1 POP SWAP3 SWAP2 POP POP JUMP JUMPDEST PUSH1 0x0 PUSH1 0x20 DUP3 ADD SWAP1 POP SWAP2 SWAP1 POP JUMP JUMPDEST PUSH1 0x0 PUSH2 0x7A5 DUP3 PUSH2 0x69D JUMP JUMPDEST PUSH2 0x7AF DUP2 DUP6 PUSH2 0x6A8 JUMP JUMPDEST SWAP4 POP DUP4 PUSH1 0x20 DUP3 MUL DUP6 ADD PUSH2 0x7C1 DUP6 PUSH2 0x6B9 JUMP JUMPDEST DUP1 PUSH1 0x0 JUMPDEST DUP6 DUP2 LT ISZERO PUSH2 0x7FD JUMPI DUP5 DUP5 SUB DUP10 MSTORE DUP2 MLOAD PUSH2 0x7DE DUP6 DUP3 PUSH2 0x779 JUMP JUMPDEST SWAP5 POP PUSH2 0x7E9 DUP4 PUSH2 0x78D JUMP JUMPDEST SWAP3 POP PUSH1 0x20 DUP11 ADD SWAP10 POP POP PUSH1 0x1 DUP2 ADD SWAP1 POP PUSH2 0x7C5 JUMP JUMPDEST POP DUP3 SWAP8 POP DUP8 SWAP6 POP POP POP POP POP POP SWAP3 SWAP2 POP POP JUMP JUMPDEST PUSH1 0x0 PUSH1 0x20 DUP3 ADD SWAP1 POP DUP2 DUP2 SUB PUSH1 0x0 DUP4 ADD MSTORE PUSH2 0x829 DUP2 DUP5 PUSH2 0x79A JUMP JUMPDEST SWAP1 POP SWAP3 SWAP2 POP POP JUMP JUMPDEST PUSH1 0x0 DUP1 REVERT JUMPDEST PUSH1 0x0 DUP1 REVERT JUMPDEST PUSH32 0x4E487B7100000000000000000000000000000000000000000000000000000000 PUSH1 0x0 MSTORE PUSH1 0x41 PUSH1 0x4 MSTORE PUSH1 0x24 PUSH1 0x0 REVERT JUMPDEST PUSH2 0x873 DUP3 PUSH2 0x5D2 JUMP JUMPDEST DUP2 ADD DUP2 DUP2 LT PUSH8 0xFFFFFFFFFFFFFFFF DUP3 GT OR ISZERO PUSH2 0x892 JUMPI PUSH2 0x891 PUSH2 0x83B JUMP JUMPDEST JUMPDEST DUP1 PUSH1 0x40 MSTORE POP POP POP JUMP JUMPDEST PUSH1 0x0 PUSH2 0x8A5 PUSH2 0x4A4 JUMP JUMPDEST SWAP1 POP PUSH2 0x8B1 DUP3 DUP3 PUSH2 0x86A JUMP JUMPDEST SWAP2 SWAP1 POP JUMP JUMPDEST PUSH1 0x0 PUSH8 0xFFFFFFFFFFFFFFFF DUP3 GT ISZERO PUSH2 0x8D1 JUMPI PUSH2 0x8D0 PUSH2 0x83B JUMP JUMPDEST JUMPDEST PUSH2 0x8DA DUP3 PUSH2 0x5D2 JUMP JUMPDEST SWAP1 POP PUSH1 0x20 DUP2 ADD SWAP1 POP SWAP2 SWAP1 POP JUMP JUMPDEST DUP3 DUP2 DUP4 CALLDATACOPY PUSH1 0x0 DUP4 DUP4 ADD MSTORE POP POP POP JUMP JUMPDEST PUSH1 0x0 PUSH2 0x909 PUSH2 0x904 DUP5 PUSH2 0x8B6 JUMP JUMPDEST PUSH2 0x89B JUMP JUMPDEST SWAP1 POP DUP3 DUP2 MSTORE PUSH1 0x20 DUP2 ADD DUP5 DUP5 DUP5 ADD GT ISZERO PUSH2 0x925 JUMPI PUSH2 0x924 PUSH2 0x836 JUMP JUMPDEST JUMPDEST PUSH2 0x930 DUP5 DUP3 DUP6 PUSH2 0x8E7 JUMP JUMPDEST POP SWAP4 SWAP3 POP POP POP JUMP JUMPDEST PUSH1 0x0 DUP3 PUSH1 0x1F DUP4 ADD SLT PUSH2 0x94D JUMPI PUSH2 0x94C PUSH2 0x831 JUMP JUMPDEST JUMPDEST DUP2 CALLDATALOAD PUSH2 0x95D DUP5 DUP3 PUSH1 0x20 DUP7 ADD PUSH2 0x8F6 JUMP JUMPDEST SWAP2 POP POP SWAP3 SWAP2 POP POP JUMP JUMPDEST PUSH1 0x0 DUP1 PUSH1 0x40 DUP4 DUP6 SUB SLT ISZERO PUSH2 0x97D JUMPI PUSH2 0x97C PUSH2 0x4AE JUMP JUMPDEST JUMPDEST PUSH1 0x0 DUP4 ADD CALLDATALOAD PUSH8 0xFFFFFFFFFFFFFFFF DUP2 GT ISZERO PUSH2 0x99B JUMPI PUSH2 0x99A PUSH2 0x4B3 JUMP JUMPDEST JUMPDEST PUSH2 0x9A7 DUP6 DUP3 DUP7 ADD PUSH2 0x938 JUMP JUMPDEST SWAP3 POP POP PUSH1 0x20 DUP4 ADD CALLDATALOAD PUSH8 0xFFFFFFFFFFFFFFFF DUP2 GT ISZERO PUSH2 0x9C8 JUMPI PUSH2 0x9C7 PUSH2 0x4B3 JUMP JUMPDEST JUMPDEST PUSH2 0x9D4 DUP6 DUP3 DUP7 ADD PUSH2 0x938 JUMP JUMPDEST SWAP2 POP POP SWAP3 POP SWAP3 SWAP1 POP JUMP JUMPDEST PUSH32 0x4E487B7100000000000000000000000000000000000000000000000000000000 PUSH1 0x0 MSTORE PUSH1 0x22 PUSH1 0x4 MSTORE PUSH1 0x24 PUSH1 0x0 REVERT JUMPDEST PUSH1 0x0 PUSH1 0x2 DUP3 DIV SWAP1 POP PUSH1 0x1 DUP3 AND DUP1 PUSH2 0xA25 JUMPI PUSH1 0x7F DUP3 AND SWAP2 POP JUMPDEST PUSH1 0x20 DUP3 LT DUP2 SUB PUSH2 0xA38 JUMPI PUSH2 0xA37 PUSH2 0x9DE JUMP JUMPDEST JUMPDEST POP SWAP2 SWAP1 POP JUMP JUMPDEST PUSH1 0x0 DUP2 SWAP1 POP DUP2 PUSH1 0x0 MSTORE PUSH1 0x20 PUSH1 0x0 KECCAK256 SWAP1 POP SWAP2 SWAP1 POP JUMP JUMPDEST PUSH1 0x0 PUSH1 0x20 PUSH1 0x1F DUP4 ADD DIV SWAP1 POP SWAP2 SWAP1 POP JUMP JUMPDEST PUSH1 0x0 DUP3 DUP3 SHL SWAP1 POP SWAP3 SWAP2 POP POP JUMP JUMPDEST PUSH1 0x0 PUSH1 0x8 DUP4 MUL PUSH2 0xAA0 PUSH32 0xFFFFFFFFFFFFFFFFFFFFFFFFFFFFFFFFFFFFFFFFFFFFFFFFFFFFFFFFFFFFFFFF DUP3 PUSH2 0xA63 JUMP JUMPDEST PUSH2 0xAAA DUP7 DUP4 PUSH2 0xA63 JUMP JUMPDEST SWAP6 POP DUP1 NOT DUP5 AND SWAP4 POP DUP1 DUP7 AND DUP5 OR SWAP3 POP POP POP SWAP4 SWAP3 POP POP POP JUMP JUMPDEST PUSH1 0x0 DUP2 SWAP1 POP SWAP2 SWAP1 POP JUMP JUMPDEST PUSH1 0x0 PUSH2 0xAE7 PUSH2 0xAE2 PUSH2 0xADD DUP5 PUSH2 0x516 JUMP JUMPDEST PUSH2 0xAC2 JUMP JUMPDEST PUSH2 0x516 JUMP JUMPDEST SWAP1 POP SWAP2 SWAP1 POP JUMP JUMPDEST PUSH1 0x0 DUP2 SWAP1 POP SWAP2 SWAP1 POP JUMP JUMPDEST PUSH2 0xB01 DUP4 PUSH2 0xACC JUMP JUMPDEST PUSH2 0xB15 PUSH2 0xB0D DUP3 PUSH2 0xAEE JUMP JUMPDEST DUP5 DUP5 SLOAD PUSH2 0xA70 JUMP JUMPDEST DUP3 SSTORE POP POP POP POP JUMP JUMPDEST PUSH1 0x0 SWAP1 JUMP JUMPDEST PUSH2 0xB2A PUSH2 0xB1D JUMP JUMPDEST PUSH2 0xB35 DUP2 DUP5 DUP5 PUSH2 0xAF8 JUMP JUMPDEST POP POP POP JUMP JUMPDEST JUMPDEST DUP2 DUP2 LT ISZERO PUSH2 0xB59 JUMPI PUSH2 0xB4E PUSH1 0x0 DUP3 PUSH2 0xB22 JUMP JUMPDEST PUSH1 0x1 DUP2 ADD SWAP1 POP PUSH2 0xB3B JUMP JUMPDEST POP POP JUMP JUMPDEST PUSH1 0x1F DUP3 GT ISZERO PUSH2 0xB9E JUMPI PUSH2 0xB6F DUP2 PUSH2 0xA3E JUMP JUMPDEST PUSH2 0xB78 DUP5 PUSH2 0xA53 JUMP JUMPDEST DUP2 ADD PUSH1 0x20 DUP6 LT ISZERO PUSH2 0xB87 JUMPI DUP2 SWAP1 POP JUMPDEST PUSH2 0xB9B PUSH2 0xB93 DUP6 PUSH2 0xA53 JUMP JUMPDEST DUP4 ADD DUP3 PUSH2 0xB3A JUMP JUMPDEST POP POP JUMPDEST POP POP POP JUMP JUMPDEST PUSH1 0x0 DUP3 DUP3 SHR SWAP1 POP SWAP3 SWAP2 POP POP JUMP JUMPDEST PUSH1 0x0 PUSH2 0xBC1 PUSH1 0x0 NOT DUP5 PUSH1 0x8 MUL PUSH2 0xBA3 JUMP JUMPDEST NOT DUP1 DUP4 AND SWAP2 POP POP SWAP3 SWAP2 POP POP JUMP JUMPDEST PUSH1 0x0 PUSH2 0xBDA DUP4 DUP4 PUSH2 0xBB0 JUMP JUMPDEST SWAP2 POP DUP3 PUSH1 0x2 MUL DUP3 OR SWAP1 POP SWAP3 SWAP2 POP POP JUMP JUMPDEST PUSH2 0xBF3 DUP3 PUSH2 0x58C JUMP JUMPDEST PUSH8 0xFFFFFFFFFFFFFFFF DUP2 GT ISZERO PUSH2 0xC0C JUMPI PUSH2 0xC0B PUSH2 0x83B JUMP JUMPDEST JUMPDEST PUSH2 0xC16 DUP3 SLOAD PUSH2 0xA0D JUMP JUMPDEST PUSH2 0xC21 DUP3 DUP3 DUP6 PUSH2 0xB5D JUMP JUMPDEST PUSH1 0x0 PUSH1 0x20 SWAP1 POP PUSH1 0x1F DUP4 GT PUSH1 0x1 DUP2 EQ PUSH2 0xC54 JUMPI PUSH1 0x0 DUP5 ISZERO PUSH2 0xC42 JUMPI DUP3 DUP8 ADD MLOAD SWAP1 POP JUMPDEST PUSH2 0xC4C DUP6 DUP3 PUSH2 0xBCE JUMP JUMPDEST DUP7 SSTORE POP PUSH2 0xCB4 JUMP JUMPDEST PUSH1 0x1F NOT DUP5 AND PUSH2 0xC62 DUP7 PUSH2 0xA3E JUMP JUMPDEST PUSH1 0x0 JUMPDEST DUP3 DUP2 LT ISZERO PUSH2 0xC8A JUMPI DUP5 DUP10 ADD MLOAD DUP3 SSTORE PUSH1 0x1 DUP3 ADD SWAP2 POP PUSH1 0x20 DUP6 ADD SWAP5 POP PUSH1 0x20 DUP2 ADD SWAP1 POP PUSH2 0xC65 JUMP JUMPDEST DUP7 DUP4 LT ISZERO PUSH2 0xCA7 JUMPI DUP5 DUP10 ADD MLOAD PUSH2 0xCA3 PUSH1 0x1F DUP10 AND DUP3 PUSH2 0xBB0 JUMP JUMPDEST DUP4 SSTORE POP JUMPDEST PUSH1 0x1 PUSH1 0x2 DUP9 MUL ADD DUP9 SSTORE POP POP POP JUMPDEST POP POP POP POP POP POP JUMP INVALID LOG2 PUSH5 0x6970667358 0x22 SLT KECCAK256 SWAP12 0xC4 0xCE GASPRICE PUSH19 0x2481EBC149C67F3D232100AACABF967ADDB9A3 PUSH8 0x28B45742E68DF864 PUSH20 0x6F6C634300081C00330000000000000000000000 "
        },
        "methodIdentifiers": {
          "getFiles(address)": "433bf37b",
          "uploadFile(string,string)": "996d50bf",
          "userFile(address,uint256)": "1a0596b3"
        }
      }
    }
  }
}